:100000000C9465000C9482000C9482000C94820085
:100010000C9482000C9482000C9482000C94820058
:100020000C9482000C9482000C9482000C94F401D5
:100030000C941E020C9482000C9482000C9482009A
:100040000C9482000C9482000C9482000C94820028
:100050000C9482006170742D676574206175746FF3
:1000600072656D6F7665202626206170742D676538
:1000700074206175746F636C65616E202626206143
:1000800070742D67657420636C65616E0A0D006184
:1000900070742D67657420646973742D7570677250
:1000A0006164650A0D006170742D67657420757058
:1000B00067726164650A0D006170742D6765742054
:1000C0007570646174650A0D000011241FBECFE5D0
:1000D000D4E0DEBFCDBF10E0A0E6B0E0E6EDF3E295
:1000E00002C005900D92A83BB107D9F710E0A8EB2C
:1000F000B0E001C01D92AD3FB107E1F70E94920050
:100100000C94EA110C940000AC0120E030E006C031
:1001100080ED97E00197F1F72F5F3F4F42175307AC
:10012000BCF70895CAE5D4E0DEBFCDBF0E949704B6
:100130000E9497030E94C30281B3806381BB81EA5E
:100140008FBD81E08EBD8AE190E09BBD8ABD84E6D3
:1001500090E099BD88BD789489E190E00E944302C7
:10016000992400E030E6A32E30E0B32E6E0108940F
:10017000C11CD11C22EA222E20E0322E98E7692EE3
:1001800090E0792E86E6482E80E0582E0E945A0292
:100190007C0190FFC4C09F99F9CF0E940006182FE0
:1001A000E82EFF24C7010E94D606882309F49BC0CD
:1001B000893009F45CC08A30A8F4843009F440C066
:1001C000853038F4823009F449C0833009F08BC09F
:1001D0003DC0863009F46AC08630A8F1883009F045
:1001E00082C05AC0813109F475C0823148F48C3024
:1001F000B1F08D3009F46EC08A3009F074C029C0A6
:100200008431A1F08A3109F43DC0823109F06BC01C
:1002100051C00E940006182F99270E94D6068C30E4
:10022000C1F3812F99270E949C0B60C00F5F602F44
:1002300080E00E94EF0283E690E00E94870242C0C5
:1002400088EB90E008C086EA90E005C08FE890E077
:1002500002C084E590E00E9494025CC08AB59BB520
:100260004E9708F057C08AB59BB5019608C08AB56D
:100270009BB5459708F44EC08AB59BB501979BBDC9
:100280008ABD48C088B599B58639910508F042C045
:1002900088B599B5059607C088B599B50597D0F189
:1002A00088B599B5059799BD88BD34C080E20E9494
:1002B000750230C00F5F602F80E00E94EF028DE07A
:1002C0000E947502992426C00E940006182F9927C3
:1002D0000E94D6068D30C1F38131B1F3812F992769
:1002E0000E948D0903C0C7010E94A20799279F930E
:1002F0008F93BF92AF92DF92CF920E94790DC60189
:100300000E9487028DB79EB706960FB6F8949EBFDF
:100310000FBE8DBF82E390E00E94840037CF93FF31
:1003200007C060E080E00E94EF02C2010E94AD03BE
:10033000F2FE07C060E080E00E94EF02C3010E946D
:10034000AD03F1FE08C060E080E00E94EF028CE89F
:1003500090E00E94AD039AE0E916F10489F08DE087
:10036000E816F104A9F198E0E916F10459F49A9419
:10037000602F892D0E94EF02C1010E94AD031CC0B5
:100380000F5F1AC0192D1F5F602F892D0E94EF0289
:10039000FF92EF92BF92AF92DF92CF920E94790DBF
:1003A000C6010E94AD03912E8DB79EB706960FB67B
:1003B000F8949EBF0FBE8DBF97E2991550F40B3194
:1003C00019F40E94F90201C00F5F9924939407C0A9
:1003D00099240C3120F00E94F90201509924602FD9
:1003E000892D0E94EF02D2CE1F920F920FB60F926C
:1003F00011242F938F939F93EF93FF939BB12CB175
:10040000E091FA00EF5FEF718091FB00E81711F4C3
:1004100082E008C0892F8871E093FA00FF27E85234
:10042000FF4F20838093FC00FF91EF919F918F916C
:100430002F910F900FBE0F901F9018951F920F9243
:100440000FB60F9211248F939F93EF93FF93909188
:10045000F8008091F900981761F0E091F900EF5FE2
:10046000EF71E093F900FF27E854FF4F80818CB9CA
:1004700001C05598FF91EF919F918F910F900FBE02
:100480000F901F9018959C011092F8001092F9009F
:100490001092FA001092FB0097FF03C082E08BB924
:1004A0003F77832F992780BD29B988E98AB986E8E3
:1004B00080BD08959091FA008091FB00981719F47F
:1004C00080E091E00895E091FB00EF5FEF71E09331
:1004D000FB00FF27E852FF4F20818091FC00992705
:1004E000982F8827820F911D0895282F9091F8004A
:1004F0009F5F9F718091F9009817E1F3E92FFF2723
:10050000E854FF4F20839093F800559A0895CF93B5
:10051000DF93EC0103C021960E9475028881882335
:10052000D1F7DF91CF910895CF93DF93EC0102C013
:100530000E947502FE01219684918823C9F7DF91FC
:10054000CF9108951F9387E40E9411050E941C0516
:10055000182F0E941C059927982F8827810F911D1D
:100560001F9108950F931F938C0186E40E9411053B
:10057000802F0E940605012F1127802F0E9406055B
:100580001F910F910895CF93DF9380EB94E00E9429
:10059000B20282E40E941105C0E0D0E080E00E9437
:1005A0000605219685E2C038D807C1F7DF91CF91C3
:1005B000089543E0969587954A95E1F780559B4FBE
:1005C00028E230E0A901649F9001659F300D749F7F
:1005D000300D1124820F931F0E94B202089598E2F9
:1005E000699FB0011124680F711DCB010E94B202F6
:1005F00008954F925F926F927F928F929F92BF92D7
:10060000CF92DF92EF92FF920F931F93CF93DF93DE
:10061000CDB7DEB7A8970FB6F894DEBF0FBECDBF3B
:10062000CC24DD244E010894811C911C240159E244
:10063000652E712C6C0E7D1EBC2C6C2D6F5F80E0C6
:100640000E94EF0283E40E941105720184010E945E
:100650001C05F80181938F01E615F705C1F76B2D95
:1006600080E00E94EF0282E40E941105F70181916F
:100670007F010E940605E016F106C1F70894C11C2F
:10068000D11CFBE1CF16D104B9F66BE180E00E94EA
:10069000EF0282E40E94110500E010E080E20E9477
:1006A00006050F5F1F4F00351105C1F7A8960FB65D
:1006B000F894DEBF0FBECDBFDF91CF911F910F9198
:1006C000FF90EF90DF90CF90BF909F908F907F90A2
:1006D0006F905F904F9008950F931F93843048F070
:1006E000813638F00E94F9026CE180E00E94EF024E
:1006F0001BC087E40E9411050E941C05182F0E9450
:100700001C05082F812F68E20E94711198E2899FD1
:10071000102D112486E40E941105812F885D0E940E
:100720000605802F0E9406051F910F910895CF9313
:10073000DF9360E080E00E94EF0282E40E941105F6
:10074000C0E0D0E080E20E940605219684E0C03B34
:10075000D807C1F7DF91CF910895CF93DF93EC01D4
:1007600082E40E94110503C021960E94060588813B
:100770008823D1F7DF91CF910895EF92FF920F93E5
:100780001F93CF93DF938C017A01EC01E3E0D695C0
:10079000C795EA95E1F7C055DB4F88E290E09C01F0
:1007A000629FC001639F900D729F900D1124C80F2E
:1007B000D91FCE010E94B20283E40E9411050E945B
:1007C0001C05482F980120953095EF2861F027707F
:1007D000307081E090E002C0880F991F2A95E2F7FF
:1007E000042F082B0CC02770307081E090E002C00D
:1007F000880F991F2A95E2F7082F00950423CE0150
:100800000E94B20282E40E941105802F0E94060518
:10081000DF91CF911F910F91FF90EF900895CF92AC
:10082000DF92EF92FF920F931F93CF93DF936C01B0
:1008300087E40E9411050E941C05182F0E941C05C8
:10084000282FF60101900020E9F73197CF018C198C
:100850009D0968E270E00E947D11EB012430C0F038
:100860001136B0F06330710598F400E010E07B01C0
:100870000894E11CF11C0E94F9020F5F1F4F0E1536
:100880001F05C9F76CE16C1B80E00E94EF0205C0F8
:10089000249718F084EA90E001C0C6010E94AD03DD
:1008A000DF91CF911F910F91FF90EF90DF90CF904C
:1008B00008950F931F93CF93DF93EC0182E40E947E
:1008C000110509C08E010F5F1F4FCE010E94280540
:1008D0000E940605E801CE010E942805882391F7B1
:1008E000DF91CF911F910F9108950F931F93CF9395
:1008F000DF93CDB7DEB727970FB6F894DEBF0FBEF4
:10090000CDBF47E050E08E010F5F1F4FB8010E943E
:10091000580DC8010E94AD0327960FB6F894DEBFAC
:100920000FBECDBFDF91CF911F910F9108950E940F
:10093000FD0480E40E94110580E30E94060587E81B
:100940000E94060587E00E94060587E20E940605D0
:100950008BE20E9406058FEE0E94060588E20E9447
:10096000060580E00E94060584E40E94110580E0EF
:100970000E94060580E00E9406058FEE0E94060593
:1009800080EB0E94060584E00E9406058FEE0E941F
:10099000060580E00E94060580E00E94060580E0D2
:1009A0000E94060580E00E9406058DE50E94110563
:1009B00084E00E94060587E00E9406058CE50E94FF
:1009C000110580E00E94060580E70E9406058CE480
:1009D0000E9411058AE50E94110580E00E9406052B
:1009E0008BE50E94110581E00E94060589E50E94C1
:1009F000110586E10E94060508958FEF8ABB85B335
:100A00008F6185BB84B38F6184BB08958BBB8FEFEF
:100A10008ABB85B3837E85BB000085B38C6185BBB3
:100A200008958BBB8FEF8ABB85B3837F85BB0000A6
:100A300085B38C6085BB089585B3857F85BB000039
:100A40001ABA000089B395B39A6095BB99270895A7
:100A5000FC01849199270895AF92BF92CF92DF92C3
:100A6000EF92FF920F931F930E94AF105B016C01F6
:100A700020E030E04AE753E40E9426117B018C011C
:100A800020E030E040E85FE30E94B91088231CF4C6
:100A900081E090E024C020E03FEF4FE757E4C80139
:100AA000B7010E94BC101816ACF420E030E040E220
:100AB00051E4C601B5010E9426110E94921006C0A1
:100AC00089E190E00197F1F761507040611571057F
:100AD000B9F707C0C801B7010E949210CB01019776
:100AE000F1F71F910F91FF90EF90DF90CF90BF90A3
:100AF000AF900895CF93DF93EC01A698AE98A79A94
:100B0000AF98AF9864E670E080E090E00E942C051A
:100B1000A69AAE9864E670E080E090E00E942C0512
:100B2000A798AF989F99FECFC0FD02C0AE9801C0B4
:100B3000AE9A9F9BFECF9F99FECFC1FD02C0AE989B
:100B400001C0AE9A9F9BFECF9F99FECFC2FD02C00F
:100B5000AE9801C0AE9A9F9BFECF9F99FECFC3FD7A
:100B600002C0AE9801C0AE9A9F9BFECF9F99FECF68
:100B7000C4FD02C0AE9801C0AE9A9F9BFECF9F9964
:100B8000FECFC5FD02C0AE9801C0AE9A9F9BFECFBE
:100B90009F99FECFC6FD02C0AE9801C0AE9A9F9B42
:100BA000FECF9F99FECFC7FD02C0AE9801C0AE9A9E
:100BB0009F9BFECF9F99FECF9E01022E229520255E
:100BC000022E269526952025822F99270196959508
:100BD000879580FF02C0AE9801C0AE9A9F9BFECF62
:100BE0009F99FECFAE9A9F9BFECFA698AE98A798EE
:100BF000AF989F99FECF9F9BFECFDF91CF91089535
:100C0000EF92FF920F931F93CF93DF93CDB7DEB791
:100C100060970FB6F894DEBF0FBECDBF7E0108947B
:100C2000E11CF11C8E010F5E1F4FA79834B324B353
:100C300081E090E002C0880F991F2A95E2F7809525
:100C4000832384BBAF98AE989F99FECF9F9BFECF26
:100C50009F99FECF9E9B05C081E090E09A83898397
:100C600002C01A8219829F9BFECF9F99FECF9E9B46
:100C700005C081E090E09C838B8302C01C821B82B4
:100C80009F9BFECF9F99FECF9E9B05C081E090E089
:100C90009E838D8302C01E821D829F9BFECF9F99E3
:100CA000FECF9E9B05C081E090E098878F8302C0B5
:100CB00018861F829F9BFECF9F99FECF9E9B05C0EB
:100CC00081E090E09A87898702C01A8619869F9BE7
:100CD000FECF9F99FECF9E9B05C081E090E09C8750
:100CE0008B8702C01C861B869F9BFECF9F99FECFE1
:100CF0009E9B05C081E090E09E878D8702C01E8686
:100D00001D869F9BFECF9F99FECF9E9B05C081E0D5
:100D100090E0988B8F8702C0188A1F869F9BFECF1A
:100D20009F99FECF83B3682F77279F9BFECF9F9914
:100D3000FECF9F9BFECFF70121E030E040E050E086
:100D400081919191DC012A9FC0012B9F900D3A9FC8
:100D5000900D1124480F591F220F331FE017F10780
:100D600079F766FF0DC0842F082E82958025082E06
:100D70008695869580259927019681FD04C008C037
:100D80004115510529F48EEF90E00E947A054DCF70
:100D9000CA0160960FB6F894DEBF0FBECDBFDF91DB
:100DA000CF911F910F91FF90EF900895823191059F
:100DB00009F4A1C083319105CCF58730910509F480
:100DC00085C088309105BCF48430910509F475C064
:100DD0008530910544F48130910509F468C003978A
:100DE00009F062C067C08530910509F469C00697B3
:100DF00009F05AC068C08B30910509F470C08C307E
:100E0000910544F48930910509F463C00A9709F00B
:100E10004BC062C08D30910509F467C08D309105DB
:100E20000CF460C0419709F03FC062C0863791055D
:100E300009F47CC087379105D4F48835910509F40D
:100E400063C0893591053CF48431910509F456C09D
:100E5000899751F556C08A35910509F45BC08A35EA
:100E600091050CF454C086369105F1F456C08E37C6
:100E7000910509F464C08F37910544F487379105D3
:100E800009F457C08837910579F456C0803E910522
:100E900009F446C0813E910509F445C083389105A7
:100EA00019F48AE190E0089580E090E0089581E0EF
:100EB00090E0089582E090E0089583E090E0089546
:100EC00084E090E0089585E090E0089586E090E069
:100ED000089587E090E0089588E090E0089589E023
:100EE00090E008958AE090E008958BE090E0089506
:100EF0008CE090E008958DE090E008958EE090E021
:100F000008958FE090E0089580E190E0089581E1F8
:100F100090E0089582E190E0089583E190E00895E3
:100F200084E190E0089585E190E0089586E190E005
:100F3000089587E190E0089588E190E0089589E1BF
:100F400090E008958234910509F48DC183349105B0
:100F50000CF097C08A32910509F461C18B3291057A
:100F60000CF049C08D31910509F447C18E319105CE
:100F7000FCF48631910509F4A9C18731910564F427
:100F80008E30910509F42AC18531910509F429C1F2
:100F90000D9709F01DC11FC18B31910509F427C1BF
:100FA0008C3191050CF026C14A9709F011C11CC182
:100FB0008332910509F42AC18432910564F48132A7
:100FC000910509F41DC1823291050CF01CC14E97A8
:100FD00009F0FEC07EC18532910509F47DC18532DC
:100FE00091050CF416C18632910509F478C18997F0
:100FF00009F0EEC011C18433910509F425C1853390
:101000009105DCF48E32910509F46CC18F329105A3
:1010100044F48C32910509F408C18D970CF008C195
:1010200001C18233910509F409C1833391050CF0A4
:1010300008C1C19709F0CCC0FEC08B33910509F4FB
:101040000CC18C33910564F48633910509F44DC1CC
:10105000863391050CF4FBC0CA9709F0B9C0FAC0F9
:101060008D33910509F444C18D3391050CF4F8C01A
:101070008E33910509F43FC18134910509F0A8C070
:101080003DC18136910509F415C1823691050CF0F8
:101090004DC08C34910509F4F5C08D349105ECF404
:1010A0008634910509F430C1873491054CF48434B9
:1010B000910509F4DEC0853491050CF022C1D6C03B
:1010C0008A34910509F423C18B3491050CF0D7C003
:1010D0008934910509F07CC0CFC08435910509F4AD
:1010E000DDC0853591056CF48E34910509F4D0C0CE
:1010F0008E3491050CF4C9C08235910509F068C0A1
:10110000CAC08A35910509F4CFC08B3591052CF4FE
:101110008535910509F05CC0C4C08B35910509F493
:10112000F9C08D35910509F053C0C1C084379105D0
:1011300009F4DBC08537910534F58C36910509F447
:10114000D7C08D36910564F48936910509F4BEC087
:101150008B36910509F4C0C086369105C9F5ADC03E
:101160008137910509F4CAC08237910524F480378C
:10117000910571F5C6C08237910509F4AAC083377D
:10118000910531F5AFC08A37910509F4A8C08B37B6
:10119000910564F48637910509F492C0863791056C
:1011A0000CF4A9C08937910599F4B4C08C37910526
:1011B00009F489C08C3791050CF4A9C08D379105CD
:1011C00009F4A2C0803E910519F48AE090E00895E8
:1011D00080E090E0089589E090E008958EE590E049
:1011E000089581E790E0089589E790E0089583E706
:1011F00090E0089581E690E0089587E790E00895F3
:1012000083E690E0089588E790E0089584E690E012
:10121000089585E690E0089580E290E0089586E7DD
:1012200090E0089586E690E0089584E790E00895C0
:1012300082E790E008958EE690E0089582E690E0DF
:10124000089588E690E0089587E690E008958AE79B
:1012500090E008958DE690E008958AE690E0089584
:1012600085E790E008958BE690E0089589E690E0A8
:1012700008958FE690E008958EE290E008958CE660
:1012800090E0089586EF90E0089580E790E008955B
:101290008FED90E0089584EE90E008958CEF90E05B
:1012A000089580E690E008958DE090E0089583E24F
:1012B00090E008958CE390E0089588E090E0089530
:1012C0008BE190E008958AE290E0089581E390E058
:1012D000089582E390E0089584E390E0089583E325
:1012E00090E0089585E390E0089586E390E0089506
:1012F00087E390E0089588E390E008958CE290E021
:10130000089580E390E0089589E390E008958DE2E8
:1013100090E008958BE290E008958234910509F4FD
:10132000A8C1833491050CF097C08A32910509F465
:101330006DC18B3291050CF049C08D31910509F4D6
:101340004AC18E319105FCF48631910509F437C10B
:101350008731910564F48E30910509F42AC18531F5
:10136000910509F429C10D9709F01DC11FC18B31E9
:10137000910509F42AC18C3191050CF029C14A97D5
:1013800009F011C11FC18332910509F430C18432C3
:10139000910564F48132910509F423C182329105EB
:1013A0000CF022C14E9709F0FEC018C1853291059C
:1013B00009F423C1853291050CF41CC186329105D4
:1013C00009F41EC1899709F0EEC01DC1843391054F
:1013D00009F434C185339105DCF48E32910509F4AA
:1013E00021C18F32910544F48C32910509F414C166
:1013F0008D970CF014C10DC18233910509F418C109
:10140000833391050CF017C1C19709F0CCC00DC111
:101410008B33910509F41EC18C33910564F4863336
:10142000910509F411C1863391050CF40AC1CA97DC
:1014300009F0B9C00CC18D33910509F411C18D3388
:1014400091050CF40AC18E33910509F40CC1813465
:10145000910509F0A8C00AC18136910509F439C186
:10146000823691050CF04DC08C34910509F419C1F8
:101470008D349105ECF48634910509F406C1873466
:1014800091054CF48434910509F4F9C08534910533
:101490000CF0F8C0F1C08A34910509F4FCC08B341B
:1014A00091050CF0FBC08934910509F07CC0F0C0B7
:1014B0008435910509F401C1853591056CF48E34AC
:1014C000910509F4F4C08E3491050CF4EDC0823519
:1014D000910509F068C0EEC08A35910509F4F3C0A2
:1014E0008B3591052CF48535910509F05CC0E8C079
:1014F0008B35910509F41DC18D35910509F053C057
:10150000E5C08437910509F4FFC08537910534F5AE
:101510008C36910509F4E9C08D36910564F489365D
:10152000910509F4DCC08B36910509F4DBC08636E1
:101530009105C9F5D1C08137910509F4DCC0823726
:10154000910524F48037910571F5D2C08237910559
:1015500009F4D4C08337910531F5D3C08A3791059A
:1015600009F4DEC08B37910564F48637910509F4E0
:10157000D1C0863791050CF4CAC08937910599F41A
:10158000CCC08C37910509F4D4C08C3791050CF48C
:10159000CAC08D37910509F4C9C0803E910519F480
:1015A0008AE090E0089580E090E0089589E090E07E
:1015B000089580EB90E0089581E590E0089581E240
:1015C00090E0089589E590E0089583E590E008951E
:1015D00081E490E0089587E590E0089582E290E04C
:1015E000089583E490E0089588E590E0089584E408
:1015F00090E0089585E490E0089584E290E00895F5
:1016000087EA90E0089580E290E0089586E590E012
:10161000089586E490E0089584E590E0089582E5D9
:1016200090E0089585E290E008958EE490E00895BA
:1016300082E490E0089588E490E0089587E490E0E3
:1016400008958AE590E0089586E290E008958DE49B
:1016500090E008958AE490E0089585E590E008958B
:101660008FE290E0089588E290E008958BE390E0A7
:1016700008958BE490E0089589E490E008958FE464
:1016800090E008958DE390E0089589E290E0089558
:101690008AE390E008958FE590E008958CE490E06F
:1016A000089586ED90E0089580E590E008958FE339
:1016B00090E0089584EC90E008958CED90E008951A
:1016C00080E690E008958DE090E0089587E290E054
:1016D00008958EE390E0089588E090E0089581E316
:1016E00090E0089584E390E0089587E390E0089502
:1016F00080E390E008958CE290E0089582E390E02A
:10170000089585E390E0089586E390E0089588E3E6
:1017100090E008958BE190E008958BE290E00895C9
:1017200083E390E008958DE290E0089589E390E0EE
:1017300008958AE290E008958434910509F458C12F
:10174000853491050CF083C08932910509F438C1C4
:101750008A3291050CF045C08D31910509F49FC185
:101760008E319105FCF48631910509F40EC1873163
:10177000910564F48E30910509F48EC1853191058F
:1017800009F400C10D9709F0F7C0F9C08B3191053C
:1017900009F401C18C3191050CF000C14A9709F0A0
:1017A000EBC0F6C08332910509F404C1843291057F
:1017B00064F48132910509F4F7C0823291050CF08E
:1017C000F6C04E9709F0D8C0ECC08532910509F4F7
:1017D00069C1853291050CF462C1869709F0CCC0CD
:1017E000ECC08633910509F457C1873391059CF409
:1017F0008E32910509F4EAC08F32910524F48D9759
:101800000CF44DC1E0C08133910509F4E2C0C197E9
:101810000CF4B2C044C18D33910509F4E3C08E339A
:10182000910564F48B33910509F4D9C08C3391058B
:101830000CF035C1CA9709F09FC0CEC08E33910518
:1018400009F4D3C0813491050CF496C028C18636C2
:10185000910509F4F1C0873691050CF045C08E342E
:10186000910509F41FC18F349105ECF48A34910578
:1018700009F4CAC08B3491056CF48634910509F4DF
:10188000BDC0863491050CF4B6C08934910509F0C9
:1018900073C0B7C08C34910509F4B9C08D3491057B
:1018A0000CF0B8C0FCC08A35910509F4BCC08B357A
:1018B00091056CF48435910509F4B2C08535910524
:1018C00009F4F3C08235910509F056C0A6C08D35E4
:1018D000910509F4EAC08136910509F4AAC08B3557
:1018E000910509F049C0A2C08437910509F4BCC034
:1018F00085379105E4F48037910509F4A9C0813753
:10190000910564F48B36910509F49CC08C369105E1
:1019100009F49BC08936910579F591C0823791050C
:1019200009F49CC0833791050CF09BC094C08A37A2
:10193000910509F4A5C08B37910564F486379105AC
:1019400009F498C0863791050CF491C08937910548
:1019500099F493C08C37910509F498C08C379105A0
:101960000CF491C08D37910509F493C0803E910528
:1019700019F48AE090E0089580E090E0089589E00D
:1019800090E0089580E490E0089589EB90E0089558
:101990008BEA90E008958FED90E0089586EE90E058
:1019A000089582EB90E0089582EA90E008958BEB31
:1019B00090E0089580EF90E0089583EB90E0089523
:1019C00080E290E0089586EB90E008958DEB90E042
:1019D00008958EE690E0089585EB90E008958AE6FC
:1019E00090E008958BE790E008958BE590E00895EE
:1019F00088EF90E008958DE790E008958DE590E000
:101A0000089587EB90E008958FE590E0089586EDC6
:101A100090E008958EEF90E008958EE590E00895AF
:101A200082E290E008958DE090E008958EE790E0E6
:101A300008958CE790E0089588E090E0089581E3B0
:101A400090E0089584E390E0089587E390E008959E
:101A500080E390E008958CE290E0089582E390E0C6
:101A6000089585E390E0089586E390E0089588E383
:101A700090E008958BE190E008958BE290E0089566
:101A800083E390E008958DE290E008958AE290E08B
:101A9000089589E390E008958CEA90E008958FE33B
:101AA00090E008958CE590E0089580E690E0089538
:101AB000FB019F01E8944230C4F04532B4F44A304F
:101AC00029F497FB1EF4909581959F4F642F7727FB
:101AD0000E947D11805D8A330CF0895D8193CB017A
:101AE0000097A1F716F45DE251931082C9010C949E
:101AF0005510A0E1B0E0EFE7FDE00C94C1110F89B3
:101B0000188D86E08E831C830B838FEF9FE7988769
:101B10008F83AE01455E5F4F5A834983698D7A8D0D
:101B2000CE0103960E949E0D29853A85020F131F50
:101B3000F8011082E4E060960C94DD11A7E1B0E0BA
:101B4000E4EAFDE00C94B3118824992454012C019B
:101B50007C8B6B8B3A01FC0117821682838181FD9D
:101B600003C08FEF9FEF7EC2CC24DD249E012F5F48
:101B70003F4F3F8B2E8B65C2C0FE48C2832D8053E2
:101B80008A30D8F430E3331641F48D85882329F464
:101B9000C3FC03C0E0E0F1E073C08AE0FD85F80219
:101BA000C00111248053830D8D8787FF02C02FE76A
:101BB0002D87C3FC40C22D843EC296012870307030
:101BC000C3FE05C08D85882311F491E09D87E7E66B
:101BD000E3156CF1F5E63F160CF068C083E53816A6
:101BE00009F489C08315BCF09BE2391609F442C0A0
:101BF00093154CF0E0E23E1609F440C0F3E23F16C4
:101C000009F0FCC143C02DE23216E9F13EE2331681
:101C100009F0F4C140C083E6381609F44DC08315BD
:101C20000CF481C098E5391609F0E8C120C0E0E75E
:101C30003E1609F4A2C0E3155CF0FCE63F1689F1FC
:101C40002FE6321689F039E6331609F0D7C16BC09A
:101C500085E7381609F499C098E7391641F0E3E7AB
:101C60003E1609F0CBC130C0F8E0F88B8EC020E101
:101C7000288B8BC080E190E0C82AD92AE0E2F0E00E
:101C8000CE2ADF2AD8C120E830E00DC080E490E001
:101C9000C82AD92AD0C1E8E0F0E0CE2ADF2A1D8682
:101CA000CAC124E030E0C22AD32AC5C13FE3832E53
:101CB0002A9423E6322E30C1F30180802A9422E058
:101CC00030E0620E731E28C1F301A081B1814D0185
:101CD000232B49F0FD856F2F772767FD7095CD0188
:101CE0000E944A1018C0FD0101900020E9F73197C9
:101CF000EA1BE88B11C0F301808191814C01232BF9
:101D000041F0FD856F2F772767FD70950E943F108A
:101D100002C00E943610888B22E030E0620E731EF3
:101D20003889231AF9C0C2FE08C0F301808191816D
:101D3000A281B38124E030E009C0F3018081918168
:101D4000AA2797FDA095BA2F22E030E0620E731EFD
:101D50004C015D01B7FF0CC082E090E0C82AD92A8F
:101D6000B094A09490948094811C911CA11CB11CEF
:101D7000EFEBFFEFCE22DF2221C020E430E0C22AC9
:101D8000D32A98E7392E30E1388BC2FE08C0F30120
:101D900080819181A281B38124E030E007C0F3010A
:101DA00080819181AA27BB2722E030E0620E731E5A
:101DB0004C015D018FEC9FEFC822D922850174018F
:101DC000FE013196FF87EE87F8898F2E9924AA2489
:101DD000BB24232D21522D8BC801B701A5019401ED
:101DE0000E9491116A301CF03D89630F01C0605D53
:101DF000EE85FF856193FF87EE87C801B701A501D6
:101E000094010E94911179018A0121153105410542
:101E1000510511F78824992454014E85FE894F1BE2
:101E2000842EC60182739070892B09F02A94C6FE15
:101E300007C02889203111F482E001C081E0281A0E
:101E4000C3FE12C08D85282F332727FD3095842FA0
:101E50009927821793072CF0E7EFFFEFCE22DF22BE
:101E600003C0FD85F41BFD87860108701070C3FE5A
:101E700003C02D85221A01C0241AC60180789170F2
:101E8000892B31F00AC0B20180E290E00E94651017
:101E90002A94822D8F5F1816B4F3C1FE04C0B201DC
:101EA0008DE290E00BC0C4FE04C0B2018BE290E072
:101EB00005C0C5FE05C0B20180E290E00E94651039
:101EC000C6FE0FC0B20180E390E00E946510388921
:101ED000303139F4B201832D992787FD90950E9406
:101EE0006510D0FC06C00AC0B20180E390E00E94F9
:101EF00065102A94822D8F5F1816B4F3012B31F4EC
:101F00000BC0B20180E390E00E9465108D85815086
:101F10008D878F5F1816ACF3F601E078F070FA8BBE
:101F2000E98BC7FE06C00AC0B20180E290E00E94C1
:101F300065102A94822D8F5F1816B4F3F3E63F16CE
:101F400041F4B201882D992787FD90950E94651074
:101F500045C023E73216B1F464017401188909C041
:101F6000F70181917F01B201992787FD90950E9429
:101F700065101150A8F74601F8898F0E911C2FEFBC
:101F8000288B2CC033E5331619F00E851F851FC032
:101F900064018401F88808C0F8018491B20199278E
:101FA0000E9465100F5F1F4FFA94FFEFFF16A1F715
:101FB00046012889820E911CF88B10C0F80182918D
:101FC0008F01B201992787FD90950E9465102E8997
:101FD0003F890217130791F71F870E8789899A890E
:101FE000892B31F426C0B20180E290E00E94651096
:101FF0002A94822D8F5F1816B4F31BC0B201832D73
:10200000992787FD90950E94651013C095E23916B7
:1020100041F4EAE0E88B22241D8681E0C82ED12C11
:102020000AC0B201832D992787FD90950E94651003
:1020300002C0CC24DD242B893C892F5F3F4F3C8B91
:102040002B8BF201838183FF04C0EB89FC893490E0
:1020500003C0EB89FC893080332009F08DCDF2017B
:1020600086819781E2E167960C94CF11FC0105907F
:102070000020E9F7809590958E0F9F1F0895FC0131
:102080000590615070400110D8F7809590958E0FA3
:102090009F1F0895FC016150704001900110D8F716
:1020A000809590958E0F9F1F0895DC01FC01672F8E
:1020B00071917723E1F7329704C07C916D9370831F
:1020C0006291AE17BF07C8F308950F931F93CF9384
:1020D000DF938C01EB018B81992781FF1BC082FF6D
:1020E0000DC02E813F818C819D812817390764F4B2
:1020F000E881F9810193F983E88306C0E885F985D1
:10210000802F0995892B31F48E819F8101969F83C1
:102110008E8302C00FEF1FEFC801DF91CF911F9197
:102120000F91089597FB70D09F3738F0FEE9F91BA7
:10213000982F872F762F6B2F05C083C09695879594
:1021400077956795F150D0F73EF49095809570950E
:1021500061957F4F8F4F9F4F0895E89403C097FB81
:102160000EF4F3DFB62F672F782F892F9EE9002416
:1021700027C00ED05EF004C00BD026F001C008D0FE
:1021800019F020F48FEF089580E0089581E008951C
:1021900097FB092E052600F868942DD0E89407FCDB
:1021A00007C0621773078407950721F008F40094AD
:1021B0000794989408959A95BB0F661F771F881F00
:1021C00011249923A1F08823B2F79F3F59F0BB0F48
:1021D00048F421F4002011F460FF04C06F5F7F4FCA
:1021E0008F4F9F4F881F9795879597F9089529C01E
:1021F000052E092607FA440F551F5F3F79F0AA27DD
:10220000A51708F051E04795880F991F9F3F31F0BF
:10221000BB27B91708F091E0879508959F919F918A
:1022200011245CC097FB880F991F9F3F31F0BB279B
:10223000B91708F091E0879508959F919F91112417
:102240004DC066277727882799270895D1DF01D0C9
:10225000B7CF992339F0552329F09F575F57950F32
:1022600013F49AF1F1CF91589F3FE1F3629FA12DB2
:102270000F92BB27639FA00DB11DEE27729FA00D8B
:10228000B11DEE1FAF93AA27649FB00DE11D739F90
:10229000B00DE11DAA1F6627829FB00DE11DA61F8C
:1022A0005527749FE00DA11D551F839FE00DA11DB3
:1022B000561F849FA00D511D852F7A2F6E2F1F90C2
:1022C0000F9088231AF4939539F408C0000C111C60
:1022D000BB1F661F771F881F012808959FEF80ECA2
:1022E0000895991B79E004C0991F961708F0961B72
:1022F000881F7A95C9F780950895AA1BBB1B51E1E9
:1023000007C0AA1FBB1FA617B70710F0A61BB70B65
:10231000881F991F5A95A9F780959095BC01CD010A
:102320000895A1E21A2EAA1BBB1BFD010DC0AA1F16
:10233000BB1FEE1FFF1FA217B307E407F50720F02E
:10234000A21BB30BE40BF50B661F771F881F991FA9
:102350001A9469F760957095809590959B01AC01F2
:10236000BD01CF0108952F923F924F925F926F92DD
:102370007F928F929F92AF92BF92CF92DF92EF9215
:10238000FF920F931F93CF93DF93CDB7DEB7CA1B96
:10239000DB0B0FB6F894DEBF0FBECDBF09942A88C1
:1023A000398848885F846E847D848C849B84AA8469
:1023B000B984C884DF80EE80FD800C811B81AA81F6
:1023C000B981CE0FD11D0FB6F894DEBF0FBECDBFC1
:0623D000ED010895FFCFAE
:1023D6002563000A0D0055415254204672616D6511
:1023E600204572726F72200055415254204F766517
:1023F6007272756E204572726F722000554152548A
:1024060020427566666572206F766572666C6F77B8
:10241600200020004552524F523A205465787420CD
:082426007A75206C616E6700FD
:00000001FF
